{
  "address": "0x2ED9929e3AA3CAd3553aA90014894300D3Fa224d",
  "abi": [
    {
      "inputs": [
        {
          "internalType": "address",
          "name": "_endpoint",
          "type": "address"
        },
        {
          "internalType": "address",
          "name": "_delegate",
          "type": "address"
        }
      ],
      "stateMutability": "nonpayable",
      "type": "constructor"
    },
    {
      "inputs": [],
      "name": "InvalidDelegate",
      "type": "error"
    },
    {
      "inputs": [],
      "name": "InvalidEndpointCall",
      "type": "error"
    },
    {
      "inputs": [
        {
          "internalType": "bytes",
          "name": "options",
          "type": "bytes"
        }
      ],
      "name": "InvalidOptions",
      "type": "error"
    },
    {
      "inputs": [],
      "name": "LzTokenUnavailable",
      "type": "error"
    },
    {
      "inputs": [
        {
          "internalType": "uint32",
          "name": "eid",
          "type": "uint32"
        }
      ],
      "name": "NoPeer",
      "type": "error"
    },
    {
      "inputs": [
        {
          "internalType": "uint256",
          "name": "msgValue",
          "type": "uint256"
        }
      ],
      "name": "NotEnoughNative",
      "type": "error"
    },
    {
      "inputs": [
        {
          "internalType": "address",
          "name": "addr",
          "type": "address"
        }
      ],
      "name": "OnlyEndpoint",
      "type": "error"
    },
    {
      "inputs": [
        {
          "internalType": "uint32",
          "name": "eid",
          "type": "uint32"
        },
        {
          "internalType": "bytes32",
          "name": "sender",
          "type": "bytes32"
        }
      ],
      "name": "OnlyPeer",
      "type": "error"
    },
    {
      "inputs": [
        {
          "internalType": "address",
          "name": "owner",
          "type": "address"
        }
      ],
      "name": "OwnableInvalidOwner",
      "type": "error"
    },
    {
      "inputs": [
        {
          "internalType": "address",
          "name": "account",
          "type": "address"
        }
      ],
      "name": "OwnableUnauthorizedAccount",
      "type": "error"
    },
    {
      "inputs": [
        {
          "internalType": "address",
          "name": "token",
          "type": "address"
        }
      ],
      "name": "SafeERC20FailedOperation",
      "type": "error"
    },
    {
      "anonymous": false,
      "inputs": [
        {
          "components": [
            {
              "internalType": "uint32",
              "name": "eid",
              "type": "uint32"
            },
            {
              "internalType": "uint16",
              "name": "msgType",
              "type": "uint16"
            },
            {
              "internalType": "bytes",
              "name": "options",
              "type": "bytes"
            }
          ],
          "indexed": false,
          "internalType": "struct EnforcedOptionParam[]",
          "name": "_enforcedOptions",
          "type": "tuple[]"
        }
      ],
      "name": "EnforcedOptionSet",
      "type": "event"
    },
    {
      "anonymous": false,
      "inputs": [
        {
          "indexed": true,
          "internalType": "address",
          "name": "previousOwner",
          "type": "address"
        },
        {
          "indexed": true,
          "internalType": "address",
          "name": "newOwner",
          "type": "address"
        }
      ],
      "name": "OwnershipTransferred",
      "type": "event"
    },
    {
      "anonymous": false,
      "inputs": [
        {
          "indexed": false,
          "internalType": "uint32",
          "name": "eid",
          "type": "uint32"
        },
        {
          "indexed": false,
          "internalType": "bytes32",
          "name": "peer",
          "type": "bytes32"
        }
      ],
      "name": "PeerSet",
      "type": "event"
    },
    {
      "inputs": [
        {
          "components": [
            {
              "internalType": "uint32",
              "name": "srcEid",
              "type": "uint32"
            },
            {
              "internalType": "bytes32",
              "name": "sender",
              "type": "bytes32"
            },
            {
              "internalType": "uint64",
              "name": "nonce",
              "type": "uint64"
            }
          ],
          "internalType": "struct Origin",
          "name": "origin",
          "type": "tuple"
        }
      ],
      "name": "allowInitializePath",
      "outputs": [
        {
          "internalType": "bool",
          "name": "",
          "type": "bool"
        }
      ],
      "stateMutability": "view",
      "type": "function"
    },
    {
      "inputs": [
        {
          "internalType": "uint32",
          "name": "_eid",
          "type": "uint32"
        },
        {
          "internalType": "uint16",
          "name": "_msgType",
          "type": "uint16"
        },
        {
          "internalType": "bytes",
          "name": "_extraOptions",
          "type": "bytes"
        }
      ],
      "name": "combineOptions",
      "outputs": [
        {
          "internalType": "bytes",
          "name": "",
          "type": "bytes"
        }
      ],
      "stateMutability": "view",
      "type": "function"
    },
    {
      "inputs": [],
      "name": "endpoint",
      "outputs": [
        {
          "internalType": "contract ILayerZeroEndpointV2",
          "name": "",
          "type": "address"
        }
      ],
      "stateMutability": "view",
      "type": "function"
    },
    {
      "inputs": [
        {
          "internalType": "uint32",
          "name": "eid",
          "type": "uint32"
        },
        {
          "internalType": "uint16",
          "name": "msgType",
          "type": "uint16"
        }
      ],
      "name": "enforcedOptions",
      "outputs": [
        {
          "internalType": "bytes",
          "name": "enforcedOption",
          "type": "bytes"
        }
      ],
      "stateMutability": "view",
      "type": "function"
    },
    {
      "inputs": [
        {
          "components": [
            {
              "internalType": "uint32",
              "name": "srcEid",
              "type": "uint32"
            },
            {
              "internalType": "bytes32",
              "name": "sender",
              "type": "bytes32"
            },
            {
              "internalType": "uint64",
              "name": "nonce",
              "type": "uint64"
            }
          ],
          "internalType": "struct Origin",
          "name": "",
          "type": "tuple"
        },
        {
          "internalType": "bytes",
          "name": "",
          "type": "bytes"
        },
        {
          "internalType": "address",
          "name": "_sender",
          "type": "address"
        }
      ],
      "name": "isComposeMsgSender",
      "outputs": [
        {
          "internalType": "bool",
          "name": "",
          "type": "bool"
        }
      ],
      "stateMutability": "view",
      "type": "function"
    },
    {
      "inputs": [
        {
          "components": [
            {
              "internalType": "uint32",
              "name": "srcEid",
              "type": "uint32"
            },
            {
              "internalType": "bytes32",
              "name": "sender",
              "type": "bytes32"
            },
            {
              "internalType": "uint64",
              "name": "nonce",
              "type": "uint64"
            }
          ],
          "internalType": "struct Origin",
          "name": "_origin",
          "type": "tuple"
        },
        {
          "internalType": "bytes32",
          "name": "_guid",
          "type": "bytes32"
        },
        {
          "internalType": "bytes",
          "name": "_message",
          "type": "bytes"
        },
        {
          "internalType": "address",
          "name": "_executor",
          "type": "address"
        },
        {
          "internalType": "bytes",
          "name": "_extraData",
          "type": "bytes"
        }
      ],
      "name": "lzReceive",
      "outputs": [],
      "stateMutability": "payable",
      "type": "function"
    },
    {
      "inputs": [
        {
          "internalType": "uint32",
          "name": "",
          "type": "uint32"
        },
        {
          "internalType": "bytes32",
          "name": "",
          "type": "bytes32"
        }
      ],
      "name": "nextNonce",
      "outputs": [
        {
          "internalType": "uint64",
          "name": "nonce",
          "type": "uint64"
        }
      ],
      "stateMutability": "view",
      "type": "function"
    },
    {
      "inputs": [],
      "name": "oAppVersion",
      "outputs": [
        {
          "internalType": "uint64",
          "name": "senderVersion",
          "type": "uint64"
        },
        {
          "internalType": "uint64",
          "name": "receiverVersion",
          "type": "uint64"
        }
      ],
      "stateMutability": "pure",
      "type": "function"
    },
    {
      "inputs": [],
      "name": "owner",
      "outputs": [
        {
          "internalType": "address",
          "name": "",
          "type": "address"
        }
      ],
      "stateMutability": "view",
      "type": "function"
    },
    {
      "inputs": [
        {
          "internalType": "uint32",
          "name": "eid",
          "type": "uint32"
        }
      ],
      "name": "peers",
      "outputs": [
        {
          "internalType": "bytes32",
          "name": "peer",
          "type": "bytes32"
        }
      ],
      "stateMutability": "view",
      "type": "function"
    },
    {
      "inputs": [],
      "name": "renounceOwnership",
      "outputs": [],
      "stateMutability": "nonpayable",
      "type": "function"
    },
    {
      "inputs": [
        {
          "internalType": "uint32",
          "name": "dstEid",
          "type": "uint32"
        },
        {
          "internalType": "bytes",
          "name": "message",
          "type": "bytes"
        },
        {
          "internalType": "bytes",
          "name": "optionsData",
          "type": "bytes"
        }
      ],
      "name": "sendBetlifyAction",
      "outputs": [
        {
          "components": [
            {
              "internalType": "bytes32",
              "name": "guid",
              "type": "bytes32"
            },
            {
              "internalType": "uint64",
              "name": "nonce",
              "type": "uint64"
            },
            {
              "components": [
                {
                  "internalType": "uint256",
                  "name": "nativeFee",
                  "type": "uint256"
                },
                {
                  "internalType": "uint256",
                  "name": "lzTokenFee",
                  "type": "uint256"
                }
              ],
              "internalType": "struct MessagingFee",
              "name": "fee",
              "type": "tuple"
            }
          ],
          "internalType": "struct MessagingReceipt",
          "name": "receipt",
          "type": "tuple"
        }
      ],
      "stateMutability": "payable",
      "type": "function"
    },
    {
      "inputs": [
        {
          "internalType": "address",
          "name": "_delegate",
          "type": "address"
        }
      ],
      "name": "setDelegate",
      "outputs": [],
      "stateMutability": "nonpayable",
      "type": "function"
    },
    {
      "inputs": [
        {
          "components": [
            {
              "internalType": "uint32",
              "name": "eid",
              "type": "uint32"
            },
            {
              "internalType": "uint16",
              "name": "msgType",
              "type": "uint16"
            },
            {
              "internalType": "bytes",
              "name": "options",
              "type": "bytes"
            }
          ],
          "internalType": "struct EnforcedOptionParam[]",
          "name": "_enforcedOptions",
          "type": "tuple[]"
        }
      ],
      "name": "setEnforcedOptions",
      "outputs": [],
      "stateMutability": "nonpayable",
      "type": "function"
    },
    {
      "inputs": [
        {
          "internalType": "uint32",
          "name": "_eid",
          "type": "uint32"
        },
        {
          "internalType": "bytes32",
          "name": "_peer",
          "type": "bytes32"
        }
      ],
      "name": "setPeer",
      "outputs": [],
      "stateMutability": "nonpayable",
      "type": "function"
    },
    {
      "inputs": [
        {
          "internalType": "address",
          "name": "newOwner",
          "type": "address"
        }
      ],
      "name": "transferOwnership",
      "outputs": [],
      "stateMutability": "nonpayable",
      "type": "function"
    }
  ],
  "transactionHash": "0x186e7ce2e9c3addb7ae3c6423e76066294c7030bcf477e00868bd30d4018778b",
  "args": [
    "0x6EDCE65403992e310A62460808c4b910D972f10f",
    "0x64772107fC23f7370C90EA0aBd29ee6117B97f77"
  ],
  "numDeployments": 4,
  "solcInputHash": "c31a836e20a9b434b0af7363b58d157d",
  "bytecode": "0x60a06040523480156200001157600080fd5b50604051620019223803806200192283398101604081905262000034916200017c565b81818181806001600160a01b0381166200006857604051631e4fbdf760e01b81526000600482015260240160405180910390fd5b62000073816200010f565b506001600160a01b038083166080528116620000a257604051632d618d8160e21b815260040160405180910390fd5b60805160405163ca5eb5e160e01b81526001600160a01b0383811660048301529091169063ca5eb5e190602401600060405180830381600087803b158015620000ea57600080fd5b505af1158015620000ff573d6000803e3d6000fd5b50505050505050505050620001b4565b600080546001600160a01b038381166001600160a01b0319831681178455604051919092169283917f8be0079c531659141344cd1fd0a4f28419497f9722a3daafe3b4186f6b6457e09190a35050565b80516001600160a01b03811681146200017757600080fd5b919050565b600080604083850312156200019057600080fd5b6200019b836200015f565b9150620001ab602084016200015f565b90509250929050565b60805161172f620001f360003960008181610193015281816103930152818161070f01528181610ae301528181610bdc0152610c93015261172f6000f3fe6080604052600436106100f35760003560e01c80638da5cb5b1161008a578063ca5eb5e111610059578063ca5eb5e1146102e6578063d72f51ec14610306578063f2fde38b14610351578063ff7bd03d1461037157600080fd5b80638da5cb5b1461024d578063b98bd0701461026b578063bb0b6a531461028b578063bc70b354146102c657600080fd5b80635e280f11116100c65780635e280f1114610181578063715018a6146101cd5780637d25a05e146101e257806382413eac1461021d57600080fd5b806313137d65146100f857806317442b701461010d5780633400288b146101345780635535d46114610154575b600080fd5b61010b610106366004610e3d565b610391565b005b34801561011957600080fd5b50604080516001815260026020820152015b60405180910390f35b34801561014057600080fd5b5061010b61014f366004610ef5565b610442565b34801561016057600080fd5b5061017461016f366004610f31565b610458565b60405161012b9190610fb4565b34801561018d57600080fd5b506101b57f000000000000000000000000000000000000000000000000000000000000000081565b6040516001600160a01b03909116815260200161012b565b3480156101d957600080fd5b5061010b6104fd565b3480156101ee57600080fd5b506102056101fd366004610ef5565b600092915050565b6040516001600160401b03909116815260200161012b565b34801561022957600080fd5b5061023d610238366004610fce565b610511565b604051901515815260200161012b565b34801561025957600080fd5b506000546001600160a01b03166101b5565b34801561027757600080fd5b5061010b610286366004611034565b610526565b34801561029757600080fd5b506102b86102a63660046110a8565b60016020526000908152604090205481565b60405190815260200161012b565b3480156102d257600080fd5b506101746102e13660046110c3565b610540565b3480156102f257600080fd5b5061010b610301366004611123565b6106e8565b610319610314366004611140565b61076e565b60408051825181526020808401516001600160401b03168183015292820151805192820192909252910151606082015260800161012b565b34801561035d57600080fd5b5061010b61036c366004611123565b6107ea565b34801561037d57600080fd5b5061023d61038c3660046111c0565b610828565b7f00000000000000000000000000000000000000000000000000000000000000006001600160a01b031633146103e1576040516391ac5e4f60e01b81523360048201526024015b60405180910390fd5b602087018035906103fb906103f6908a6110a8565b61085e565b146104395761040d60208801886110a8565b60405163309afaf360e21b815263ffffffff9091166004820152602088013560248201526044016103d8565b50505050505050565b61044a6108a0565b61045482826108cd565b5050565b60026020908152600092835260408084209091529082529020805461047c906111dc565b80601f01602080910402602001604051908101604052809291908181526020018280546104a8906111dc565b80156104f55780601f106104ca576101008083540402835291602001916104f5565b820191906000526020600020905b8154815290600101906020018083116104d857829003601f168201915b505050505081565b6105056108a0565b61050f6000610922565b565b6001600160a01b03811630145b949350505050565b61052e6108a0565b61045461053b828461127e565b610972565b63ffffffff8416600090815260026020908152604080832061ffff87168452909152812080546060929190610574906111dc565b80601f01602080910402602001604051908101604052809291908181526020018280546105a0906111dc565b80156105ed5780601f106105c2576101008083540402835291602001916105ed565b820191906000526020600020905b8154815290600101906020018083116105d057829003601f168201915b50505050509050805160000361063d5783838080601f01602080910402602001604051908101604052809392919081815260200183838082843760009201919091525092945061051e9350505050565b600083900361064d57905061051e565b600283106106cb5761069484848080601f016020809104026020016040519081016040528093929190818152602001838380828437600092019190915250610a8492505050565b806106a284600281886113a3565b6040516020016106b4939291906113cd565b60405160208183030381529060405291505061051e565b8383604051639a6d49cd60e01b81526004016103d89291906113f5565b6106f06108a0565b60405163ca5eb5e160e01b81526001600160a01b0382811660048301527f0000000000000000000000000000000000000000000000000000000000000000169063ca5eb5e190602401600060405180830381600087803b15801561075357600080fd5b505af1158015610767573d6000803e3d6000fd5b5050505050565b610776610d81565b60006107858760018686610540565b90506107df8787878080601f01602080910402602001604051908101604052809392919081815260200183838082843760009201829052506040805180820190915234815260208101919091528793509150339050610ab0565b979650505050505050565b6107f26108a0565b6001600160a01b03811661081c57604051631e4fbdf760e01b8152600060048201526024016103d8565b61082581610922565b50565b600060208201803590600190839061084090866110a8565b63ffffffff1681526020810191909152604001600020541492915050565b63ffffffff81166000908152600160205260408120548061089a5760405163f6ff4fb760e01b815263ffffffff841660048201526024016103d8565b92915050565b6000546001600160a01b0316331461050f5760405163118cdaa760e01b81523360048201526024016103d8565b63ffffffff8216600081815260016020908152604091829020849055815192835282018390527f238399d427b947898edb290f5ff0f9109849b1c3ba196a42e35f00c50a54b98b910160405180910390a15050565b600080546001600160a01b038381166001600160a01b0319831681178455604051919092169283917f8be0079c531659141344cd1fd0a4f28419497f9722a3daafe3b4186f6b6457e09190a35050565b60005b8151811015610a49576109a482828151811061099357610993611424565b602002602001015160400151610a84565b8181815181106109b6576109b6611424565b602002602001015160400151600260008484815181106109d8576109d8611424565b60200260200101516000015163ffffffff1663ffffffff1681526020019081526020016000206000848481518110610a1257610a12611424565b60200260200101516020015161ffff1661ffff1681526020019081526020016000209081610a40919061148b565b50600101610975565b507fbe4864a8e820971c0247f5992e2da559595f7bf076a21cb5928d443d2a13b67481604051610a79919061154a565b60405180910390a150565b600281015161ffff81166003146104545781604051639a6d49cd60e01b81526004016103d89190610fb4565b610ab8610d81565b6000610ac78460000151610bb0565b602085015190915015610ae157610ae18460200151610bd8565b7f00000000000000000000000000000000000000000000000000000000000000006001600160a01b0316632637a450826040518060a001604052808b63ffffffff168152602001610b318c61085e565b81526020018a815260200189815260200160008960200151111515815250866040518463ffffffff1660e01b8152600401610b6d9291906115d5565b60806040518083038185885af1158015610b8b573d6000803e3d6000fd5b50505050506040513d601f19601f820116820180604052508101906107df919061164e565b6000813414610bd4576040516304fb820960e51b81523460048201526024016103d8565b5090565b60007f00000000000000000000000000000000000000000000000000000000000000006001600160a01b031663e4fe1d946040518163ffffffff1660e01b8152600401602060405180830381865afa158015610c38573d6000803e3d6000fd5b505050506040513d601f19601f82011682018060405250810190610c5c91906116dc565b90506001600160a01b038116610c85576040516329b99a9560e11b815260040160405180910390fd5b6040805133602482018190527f00000000000000000000000000000000000000000000000000000000000000006001600160a01b03818116604485015260648085018890528551808603909101815260849094019094526020830180516001600160e01b03166323b872dd60e01b179052610454938516928690610d0a908590610d10565b50505050565b600080602060008451602086016000885af180610d33576040513d6000823e3d81fd5b50506000513d91508115610d4b578060011415610d58565b6001600160a01b0384163b155b15610d0a57604051635274afe760e01b81526001600160a01b03851660048201526024016103d8565b60405180606001604052806000801916815260200160006001600160401b03168152602001610dc3604051806040016040528060008152602001600081525090565b905290565b600060608284031215610dda57600080fd5b50919050565b60008083601f840112610df257600080fd5b5081356001600160401b03811115610e0957600080fd5b602083019150836020828501011115610e2157600080fd5b9250929050565b6001600160a01b038116811461082557600080fd5b600080600080600080600060e0888a031215610e5857600080fd5b610e628989610dc8565b96506060880135955060808801356001600160401b0380821115610e8557600080fd5b610e918b838c01610de0565b909750955060a08a01359150610ea682610e28565b90935060c08901359080821115610ebc57600080fd5b50610ec98a828b01610de0565b989b979a50959850939692959293505050565b803563ffffffff81168114610ef057600080fd5b919050565b60008060408385031215610f0857600080fd5b610f1183610edc565b946020939093013593505050565b803561ffff81168114610ef057600080fd5b60008060408385031215610f4457600080fd5b610f4d83610edc565b9150610f5b60208401610f1f565b90509250929050565b60005b83811015610f7f578181015183820152602001610f67565b50506000910152565b60008151808452610fa0816020860160208601610f64565b601f01601f19169290920160200192915050565b602081526000610fc76020830184610f88565b9392505050565b60008060008060a08587031215610fe457600080fd5b610fee8686610dc8565b935060608501356001600160401b0381111561100957600080fd5b61101587828801610de0565b909450925050608085013561102981610e28565b939692955090935050565b6000806020838503121561104757600080fd5b82356001600160401b038082111561105e57600080fd5b818501915085601f83011261107257600080fd5b81358181111561108157600080fd5b8660208260051b850101111561109657600080fd5b60209290920196919550909350505050565b6000602082840312156110ba57600080fd5b610fc782610edc565b600080600080606085870312156110d957600080fd5b6110e285610edc565b93506110f060208601610f1f565b925060408501356001600160401b0381111561110b57600080fd5b61111787828801610de0565b95989497509550505050565b60006020828403121561113557600080fd5b8135610fc781610e28565b60008060008060006060868803121561115857600080fd5b61116186610edc565b945060208601356001600160401b038082111561117d57600080fd5b61118989838a01610de0565b909650945060408801359150808211156111a257600080fd5b506111af88828901610de0565b969995985093965092949392505050565b6000606082840312156111d257600080fd5b610fc78383610dc8565b600181811c908216806111f057607f821691505b602082108103610dda57634e487b7160e01b600052602260045260246000fd5b634e487b7160e01b600052604160045260246000fd5b604051606081016001600160401b038111828210171561124857611248611210565b60405290565b604051601f8201601f191681016001600160401b038111828210171561127657611276611210565b604052919050565b60006001600160401b038084111561129857611298611210565b8360051b60206112a981830161124e565b8681529185019181810190368411156112c157600080fd5b865b84811015611397578035868111156112db5760008081fd5b880160603682900312156112ef5760008081fd5b6112f7611226565b61130082610edc565b815261130d868301610f1f565b86820152604080830135898111156113255760008081fd5b9290920191601f368185011261133b5760008081fd5b83358a81111561134d5761134d611210565b61135e818301601f19168a0161124e565b915080825236898287010111156113755760008081fd5b808986018a8401376000908201890152908201528452509183019183016112c3565b50979650505050505050565b600080858511156113b357600080fd5b838611156113c057600080fd5b5050820193919092039150565b600084516113df818460208901610f64565b8201838582376000930192835250909392505050565b60208152816020820152818360408301376000818301604090810191909152601f909201601f19160101919050565b634e487b7160e01b600052603260045260246000fd5b601f821115611486576000816000526020600020601f850160051c810160208610156114635750805b601f850160051c820191505b818110156114825782815560010161146f565b5050505b505050565b81516001600160401b038111156114a4576114a4611210565b6114b8816114b284546111dc565b8461143a565b602080601f8311600181146114ed57600084156114d55750858301515b600019600386901b1c1916600185901b178555611482565b600085815260208120601f198616915b8281101561151c578886015182559484019460019091019084016114fd565b508582101561153a5787850151600019600388901b60f8161c191681555b5050505050600190811b01905550565b600060208083018184528085518083526040925060408601915060408160051b87010184880160005b838110156115c757888303603f190185528151805163ffffffff1684528781015161ffff168885015286015160608785018190526115b381860183610f88565b968901969450505090860190600101611573565b509098975050505050505050565b6040815263ffffffff8351166040820152602083015160608201526000604084015160a0608084015261160b60e0840182610f88565b90506060850151603f198483030160a08501526116288282610f88565b60809690960151151560c08501525050506001600160a01b039190911660209091015290565b6000818303608081121561166157600080fd5b611669611226565b8351815260208401516001600160401b03808216821461168857600080fd5b8160208401526040915081603f19850112156116a357600080fd5b8151935081840184811082821117156116be576116be611210565b82525084810151835260609094015160208301529283015250919050565b6000602082840312156116ee57600080fd5b8151610fc781610e2856fea2646970667358221220917ba6f618fc1d5eaf2f495835522b4cfbca4e068ac9facc8884a42ec6070d3d64736f6c63430008160033",
  "devdoc": {
    "errors": {
      "OwnableInvalidOwner(address)": [
        {
          "details": "The owner is not a valid owner account. (eg. `address(0)`)"
        }
      ],
      "OwnableUnauthorizedAccount(address)": [
        {
          "details": "The caller account is not authorized to perform an operation."
        }
      ],
      "SafeERC20FailedOperation(address)": [
        {
          "details": "An operation with an ERC-20 token failed."
        }
      ]
    },
    "kind": "dev",
    "methods": {
      "allowInitializePath((uint32,bytes32,uint64))": {
        "details": "This indicates to the endpoint that the OApp has enabled msgs for this particular path to be received.This defaults to assuming if a peer has been set, its initialized. Can be overridden by the OApp if there is other logic to determine this.",
        "params": {
          "origin": "The origin information containing the source endpoint and sender address."
        },
        "returns": {
          "_0": "Whether the path has been initialized."
        }
      },
      "combineOptions(uint32,uint16,bytes)": {
        "details": "If there is an enforced lzReceive option: - {gasLimit: 200k, msg.value: 1 ether} AND a caller supplies a lzReceive option: {gasLimit: 100k, msg.value: 0.5 ether} - The resulting options will be {gasLimit: 300k, msg.value: 1.5 ether} when the message is executed on the remote lzReceive() function.This presence of duplicated options is handled off-chain in the verifier/executor.",
        "params": {
          "_eid": "The endpoint ID.",
          "_extraOptions": "Additional options passed by the caller.",
          "_msgType": "The OAPP message type."
        },
        "returns": {
          "_0": "options The combination of caller specified options AND enforced options."
        }
      },
      "isComposeMsgSender((uint32,bytes32,uint64),bytes,address)": {
        "details": "_origin The origin information containing the source endpoint and sender address.  - srcEid: The source chain endpoint ID.  - sender: The sender address on the src chain.  - nonce: The nonce of the message._message The lzReceive payload.Applications can optionally choose to implement separate composeMsg senders that are NOT the bridging layer.The default sender IS the OAppReceiver implementer.",
        "params": {
          "_sender": "The sender address."
        },
        "returns": {
          "_0": "isSender Is a valid sender."
        }
      },
      "lzReceive((uint32,bytes32,uint64),bytes32,bytes,address,bytes)": {
        "details": "Entry point for receiving messages or packets from the endpoint.Entry point for receiving msg/packet from the LayerZero endpoint.",
        "params": {
          "_executor": "The address of the executor for the received message.",
          "_extraData": "Additional arbitrary data provided by the corresponding executor.",
          "_guid": "The unique identifier for the received LayerZero message.",
          "_message": "The payload of the received message.",
          "_origin": "The origin information containing the source endpoint and sender address.  - srcEid: The source chain endpoint ID.  - sender: The sender address on the src chain.  - nonce: The nonce of the message."
        }
      },
      "nextNonce(uint32,bytes32)": {
        "details": "_srcEid The source endpoint ID._sender The sender address.The path nonce starts from 1. If 0 is returned it means that there is NO nonce ordered enforcement.Is required by the off-chain executor to determine the OApp expects msg execution is ordered.This is also enforced by the OApp.By default this is NOT enabled. ie. nextNonce is hardcoded to return 0.",
        "returns": {
          "nonce": "The next nonce."
        }
      },
      "oAppVersion()": {
        "returns": {
          "receiverVersion": "The version of the OAppReceiver.sol implementation.",
          "senderVersion": "The version of the OAppSender.sol implementation."
        }
      },
      "owner()": {
        "details": "Returns the address of the current owner."
      },
      "renounceOwnership()": {
        "details": "Leaves the contract without owner. It will not be possible to call `onlyOwner` functions. Can only be called by the current owner. NOTE: Renouncing ownership will leave the contract without an owner, thereby disabling any functionality that is only available to the owner."
      },
      "setDelegate(address)": {
        "details": "Only the owner/admin of the OApp can call this function.Provides the ability for a delegate to set configs, on behalf of the OApp, directly on the Endpoint contract.",
        "params": {
          "_delegate": "The address of the delegate to be set."
        }
      },
      "setEnforcedOptions((uint32,uint16,bytes)[])": {
        "details": "Sets the enforced options for specific endpoint and message type combinations.Only the owner/admin of the OApp can call this function.Provides a way for the OApp to enforce things like paying for PreCrime, AND/OR minimum dst lzReceive gas amounts etc.These enforced options can vary as the potential options/execution on the remote may differ as per the msgType. eg. Amount of lzReceive() gas necessary to deliver a lzCompose() message adds overhead you dont want to pay if you are only making a standard LayerZero message ie. lzReceive() WITHOUT sendCompose().",
        "params": {
          "_enforcedOptions": "An array of EnforcedOptionParam structures specifying enforced options."
        }
      },
      "setPeer(uint32,bytes32)": {
        "details": "Only the owner/admin of the OApp can call this function.Indicates that the peer is trusted to send LayerZero messages to this OApp.Set this to bytes32(0) to remove the peer address.Peer is a bytes32 to accommodate non-evm chains.",
        "params": {
          "_eid": "The endpoint ID.",
          "_peer": "The address of the peer to be associated with the corresponding endpoint."
        }
      },
      "transferOwnership(address)": {
        "details": "Transfers ownership of the contract to a new account (`newOwner`). Can only be called by the current owner."
      }
    },
    "version": 1
  },
  "userdoc": {
    "kind": "user",
    "methods": {
      "allowInitializePath((uint32,bytes32,uint64))": {
        "notice": "Checks if the path initialization is allowed based on the provided origin."
      },
      "combineOptions(uint32,uint16,bytes)": {
        "notice": "Combines options for a given endpoint and message type."
      },
      "endpoint()": {
        "notice": "Retrieves the LayerZero endpoint associated with the OApp."
      },
      "isComposeMsgSender((uint32,bytes32,uint64),bytes,address)": {
        "notice": "Indicates whether an address is an approved composeMsg sender to the Endpoint."
      },
      "nextNonce(uint32,bytes32)": {
        "notice": "Retrieves the next nonce for a given source endpoint and sender address."
      },
      "oAppVersion()": {
        "notice": "Retrieves the OApp version information."
      },
      "peers(uint32)": {
        "notice": "Retrieves the peer (OApp) associated with a corresponding endpoint."
      },
      "setDelegate(address)": {
        "notice": "Sets the delegate address for the OApp."
      },
      "setPeer(uint32,bytes32)": {
        "notice": "Sets the peer address (OApp instance) for a corresponding endpoint."
      }
    },
    "version": 1
  },
  "storageLayout": {
    "storage": [
      {
        "astId": 1533,
        "contract": "contracts/BetlifyOApp.sol:BetlifyEvmAdapter",
        "label": "_owner",
        "offset": 0,
        "slot": "0",
        "type": "t_address"
      },
      {
        "astId": 785,
        "contract": "contracts/BetlifyOApp.sol:BetlifyEvmAdapter",
        "label": "peers",
        "offset": 0,
        "slot": "1",
        "type": "t_mapping(t_uint32,t_bytes32)"
      },
      {
        "astId": 1381,
        "contract": "contracts/BetlifyOApp.sol:BetlifyEvmAdapter",
        "label": "enforcedOptions",
        "offset": 0,
        "slot": "2",
        "type": "t_mapping(t_uint32,t_mapping(t_uint16,t_bytes_storage))"
      }
    ],
    "types": {
      "t_address": {
        "encoding": "inplace",
        "label": "address",
        "numberOfBytes": "20"
      },
      "t_bytes32": {
        "encoding": "inplace",
        "label": "bytes32",
        "numberOfBytes": "32"
      },
      "t_bytes_storage": {
        "encoding": "bytes",
        "label": "bytes",
        "numberOfBytes": "32"
      },
      "t_mapping(t_uint16,t_bytes_storage)": {
        "encoding": "mapping",
        "key": "t_uint16",
        "label": "mapping(uint16 => bytes)",
        "numberOfBytes": "32",
        "value": "t_bytes_storage"
      },
      "t_mapping(t_uint32,t_bytes32)": {
        "encoding": "mapping",
        "key": "t_uint32",
        "label": "mapping(uint32 => bytes32)",
        "numberOfBytes": "32",
        "value": "t_bytes32"
      },
      "t_mapping(t_uint32,t_mapping(t_uint16,t_bytes_storage))": {
        "encoding": "mapping",
        "key": "t_uint32",
        "label": "mapping(uint32 => mapping(uint16 => bytes))",
        "numberOfBytes": "32",
        "value": "t_mapping(t_uint16,t_bytes_storage)"
      },
      "t_uint16": {
        "encoding": "inplace",
        "label": "uint16",
        "numberOfBytes": "2"
      },
      "t_uint32": {
        "encoding": "inplace",
        "label": "uint32",
        "numberOfBytes": "4"
      }
    }
  }
}